{
  "contractName": "Coffee",
  "abi": [
    {
      "inputs": [],
      "stateMutability": "nonpayable",
      "type": "constructor"
    },
    {
      "inputs": [],
      "name": "owner",
      "outputs": [
        {
          "internalType": "address payable",
          "name": "",
          "type": "address"
        }
      ],
      "stateMutability": "view",
      "type": "function",
      "constant": true
    },
    {
      "inputs": [
        {
          "internalType": "string",
          "name": "_name",
          "type": "string"
        },
        {
          "internalType": "string",
          "name": "_message",
          "type": "string"
        }
      ],
      "name": "buyCoffee",
      "outputs": [],
      "stateMutability": "payable",
      "type": "function",
      "payable": true
    },
    {
      "inputs": [],
      "name": "getData",
      "outputs": [
        {
          "components": [
            {
              "internalType": "string",
              "name": "name",
              "type": "string"
            },
            {
              "internalType": "string",
              "name": "message",
              "type": "string"
            },
            {
              "internalType": "uint256",
              "name": "timestamp",
              "type": "uint256"
            },
            {
              "internalType": "address",
              "name": "sender",
              "type": "address"
            }
          ],
          "internalType": "struct Coffee.Data[]",
          "name": "",
          "type": "tuple[]"
        }
      ],
      "stateMutability": "view",
      "type": "function",
      "constant": true
    }
  ],
  "bytecode": "0x608060405234801561001057600080fd5b50336000806101000a81548173ffffffffffffffffffffffffffffffffffffffff021916908373ffffffffffffffffffffffffffffffffffffffff160217905550610d01806100606000396000f3fe6080604052600436106100345760003560e01c8063204206e1146100395780633bc5de30146100555780638da5cb5b14610080575b600080fd5b610053600480360381019061004e9190610629565b6100ab565b005b34801561006157600080fd5b5061006a6102c8565b60405161007791906108a6565b60405180910390f35b34801561008c57600080fd5b506100956104ab565b6040516100a291906108e9565b60405180910390f35b60008054906101000a900473ffffffffffffffffffffffffffffffffffffffff1673ffffffffffffffffffffffffffffffffffffffff163373ffffffffffffffffffffffffffffffffffffffff1603610139576040517f08c379a000000000000000000000000000000000000000000000000000000000815260040161013090610961565b60405180910390fd5b6000341161017c576040517f08c379a0000000000000000000000000000000000000000000000000000000008152600401610173906109cd565b60405180910390fd5b60008054906101000a900473ffffffffffffffffffffffffffffffffffffffff1673ffffffffffffffffffffffffffffffffffffffff166108fc349081150290604051600060405180830381858888f193505050501580156101e2573d6000803e3d6000fd5b50600160405180608001604052808481526020018381526020014281526020013373ffffffffffffffffffffffffffffffffffffffff168152509080600181540180825580915050600190039060005260206000209060040201600090919091909150600082015181600001908161025a9190610bf9565b5060208201518160010190816102709190610bf9565b506040820151816002015560608201518160030160006101000a81548173ffffffffffffffffffffffffffffffffffffffff021916908373ffffffffffffffffffffffffffffffffffffffff16021790555050505050565b60606001805480602002602001604051908101604052809291908181526020016000905b828210156104a2578382906000526020600020906004020160405180608001604052908160008201805461031f90610a1c565b80601f016020809104026020016040519081016040528092919081815260200182805461034b90610a1c565b80156103985780601f1061036d57610100808354040283529160200191610398565b820191906000526020600020905b81548152906001019060200180831161037b57829003601f168201915b505050505081526020016001820180546103b190610a1c565b80601f01602080910402602001604051908101604052809291908181526020018280546103dd90610a1c565b801561042a5780601f106103ff5761010080835404028352916020019161042a565b820191906000526020600020905b81548152906001019060200180831161040d57829003601f168201915b50505050508152602001600282015481526020016003820160009054906101000a900473ffffffffffffffffffffffffffffffffffffffff1673ffffffffffffffffffffffffffffffffffffffff1673ffffffffffffffffffffffffffffffffffffffff1681525050815260200190600101906102ec565b50505050905090565b60008054906101000a900473ffffffffffffffffffffffffffffffffffffffff1681565b6000604051905090565b600080fd5b600080fd5b600080fd5b600080fd5b6000601f19601f8301169050919050565b7f4e487b7100000000000000000000000000000000000000000000000000000000600052604160045260246000fd5b610536826104ed565b810181811067ffffffffffffffff82111715610555576105546104fe565b5b80604052505050565b60006105686104cf565b9050610574828261052d565b919050565b600067ffffffffffffffff821115610594576105936104fe565b5b61059d826104ed565b9050602081019050919050565b82818337600083830152505050565b60006105cc6105c784610579565b61055e565b9050828152602081018484840111156105e8576105e76104e8565b5b6105f38482856105aa565b509392505050565b600082601f8301126106105761060f6104e3565b5b81356106208482602086016105b9565b91505092915050565b600080604083850312156106405761063f6104d9565b5b600083013567ffffffffffffffff81111561065e5761065d6104de565b5b61066a858286016105fb565b925050602083013567ffffffffffffffff81111561068b5761068a6104de565b5b610697858286016105fb565b9150509250929050565b600081519050919050565b600082825260208201905092915050565b6000819050602082019050919050565b600081519050919050565b600082825260208201905092915050565b60005b838110156107075780820151818401526020810190506106ec565b60008484015250505050565b600061071e826106cd565b61072881856106d8565b93506107388185602086016106e9565b610741816104ed565b840191505092915050565b6000819050919050565b61075f8161074c565b82525050565b600073ffffffffffffffffffffffffffffffffffffffff82169050919050565b600061079082610765565b9050919050565b6107a081610785565b82525050565b600060808301600083015184820360008601526107c38282610713565b915050602083015184820360208601526107dd8282610713565b91505060408301516107f26040860182610756565b5060608301516108056060860182610797565b508091505092915050565b600061081c83836107a6565b905092915050565b6000602082019050919050565b600061083c826106a1565b61084681856106ac565b935083602082028501610858856106bd565b8060005b8581101561089457848403895281516108758582610810565b945061088083610824565b925060208a0199505060018101905061085c565b50829750879550505050505092915050565b600060208201905081810360008301526108c08184610831565b905092915050565b60006108d382610765565b9050919050565b6108e3816108c8565b82525050565b60006020820190506108fe60008301846108da565b92915050565b600082825260208201905092915050565b7f4f776e6572206973206e6f7420616c6c6f776564000000000000000000000000600082015250565b600061094b601483610904565b915061095682610915565b602082019050919050565b6000602082019050818103600083015261097a8161093e565b9050919050565b7f506c65617365207061792067726561746572207468616e203020657468657200600082015250565b60006109b7601f83610904565b91506109c282610981565b602082019050919050565b600060208201905081810360008301526109e6816109aa565b9050919050565b7f4e487b7100000000000000000000000000000000000000000000000000000000600052602260045260246000fd5b60006002820490506001821680610a3457607f821691505b602082108103610a4757610a466109ed565b5b50919050565b60008190508160005260206000209050919050565b60006020601f8301049050919050565b600082821b905092915050565b600060088302610aaf7fffffffffffffffffffffffffffffffffffffffffffffffffffffffffffffffff82610a72565b610ab98683610a72565b95508019841693508086168417925050509392505050565b6000819050919050565b6000610af6610af1610aec8461074c565b610ad1565b61074c565b9050919050565b6000819050919050565b610b1083610adb565b610b24610b1c82610afd565b848454610a7f565b825550505050565b600090565b610b39610b2c565b610b44818484610b07565b505050565b5b81811015610b6857610b5d600082610b31565b600181019050610b4a565b5050565b601f821115610bad57610b7e81610a4d565b610b8784610a62565b81016020851015610b96578190505b610baa610ba285610a62565b830182610b49565b50505b505050565b600082821c905092915050565b6000610bd060001984600802610bb2565b1980831691505092915050565b6000610be98383610bbf565b9150826002028217905092915050565b610c02826106cd565b67ffffffffffffffff811115610c1b57610c1a6104fe565b5b610c258254610a1c565b610c30828285610b6c565b600060209050601f831160018114610c635760008415610c51578287015190505b610c5b8582610bdd565b865550610cc3565b601f198416610c7186610a4d565b60005b82811015610c9957848901518255600182019150602085019450602081019050610c74565b86831015610cb65784890151610cb2601f891682610bbf565b8355505b6001600288020188555050505b50505050505056fea2646970667358221220d1f2da2782030774e21cce26b329655006cf87521be0b000f327ff64e91f0a7864736f6c63430008110033",
  "immutableReferences": {},
  "source": "// SPDX-License-Identifier: GPL-3.0\n\npragma solidity >=0.8.2 <0.9.0;\n\ncontract Coffee {\n    address payable public owner;\n    struct Data {\n        string name;\n        string message;\n        uint timestamp;\n        address sender;\n    }\n\n    Data[] data;\n\n    constructor() {\n        owner = payable(msg.sender);\n    }\n\n    function buyCoffee(\n        string memory _name,\n        string memory _message\n    ) external payable {\n        require(msg.sender != owner, \"Owner is not allowed\");\n        require(msg.value > 0, \"Please pay greater than 0 ether\");\n        payable(owner).transfer(msg.value);\n        data.push(Data(_name, _message, block.timestamp, msg.sender));\n    }\n\n    function getData() external view returns (Data[] memory) {\n        return data;\n    }\n}\n// contract address: 0xd89c50aaA3B4102015eE201717e14327820c2b16\n",
  "sourcePath": "/Users/adityaraj/Desktop/project/contracts/Coffee.sol",
  "compiler": {
    "name": "solc",
    "version": "0.8.17+commit.8df45f5f.Emscripten.clang"
  },
  "schemaVersion": "3.4.11",
  "updatedAt": "2023-03-10T10:19:40.161Z",
  "networkType": "ethereum",
  "devdoc": {
    "kind": "dev",
    "methods": {},
    "version": 1
  },
  "userdoc": {
    "kind": "user",
    "methods": {},
    "version": 1
  }
}